S012000053656374696F6E3155372E7372656380
S11300000C942A000C9447000C9447000C9447006D
S11300100C9447000C9447000C9447000C94470040
S11300200C9447000C9447000C9447000C94470030
S11300300C9447000C9447000C9447000C94470020
S11300400C9447000C9447000C9447000C94470010
S11300500C94470011241FBECFE5D8E0DEBFCDBF0E
S113006010E0A0E6B0E0ECE1F1E002C005900D92F2
S1130070A036B107D9F710E0A0E6B0E001C01D92A8
S1130080A036B107E1F70E9449000C948C000C944F
S1130090000088988D9A8E9A8F9A809BFECF959AAD
S11300A08FEB97E2A9E081509040A040E1F700C0B7
S11300B00000969A8FEB97E2A9E081509040A0400F
S11300C0E1F700C00000979A8FEB97E2A9E0815016
S11300D09040A040E1F700C0000097988FEB97E2B2
S11300E0A9E081509040A040E1F700C0000096983C
S11300F08FEB97E2A9E081509040A040E1F700C067
S1130100000095988FEB97E2A9E081509040A040C1
S10F0110E1F700C00000C1CFF894FFCF5D
S9030000FC
