S00C00004C6162322E73726563D7
S11300000C942A000C9447000C9447000C9447006D
S11300100C9447000C9447000C9447000C94470040
S11300200C9447000C9447000C9447000C94470030
S11300300C9447000C9447000C9447000C94470020
S11300400C9447000C9447000C9447000C94470010
S11300500C94470011241FBECFE5D8E0DEBFCDBF0E
S113006010E0A0E6B0E0E6EBF0E002C005900D92EF
S1130070A036B107D9F710E0A0E6B0E001C01D92A8
S1130080A036B107E1F70E9449000C9459000C9482
S1130090000088988C9A809BFECF949A8FE39DE011
S11300A0A3E081509040A040E1F700C00000949884
S10900B0F2CFF894FFCF2B
S9030000FC
